:020000040800F2
:10000000D018002045010008411400081914000808
:100010003D140008BD0D0008F13300080000000089
:100020000000000000000000000000003123000874
:100030002111000800000000D51400086726000800
:100040005F0100085F0100085F0100085F01000810
:100050005F0100085F0100085F0100085F01000800
:100060005F0100085F0100085F0100085F010008F0
:100070005F010008650E00086D0E00085F010008B2
:100080005F0100085F0100085F0100085F010008D0
:100090005F0100085F0100085F0100085F010008C0
:1000A0005F010008292700085F0100085F010008C0
:1000B0005F0100085F0100085F0100085F010008A0
:1000C0005F0100085F0100085F0100085F01000890
:1000D0005F0100082D3000085F0100085F01000883
:1000E0005F0100085F0100085F0100085F01000870
:1000F0005F0100085F0100085F0100085F01000860
:100100005F0100085F0100085F0100085F0100084F
:100110005F0100085F0100085F0100085F0100083F
:100120005F0100085F0100085F0100085F0100082F
:10013000DFF80CD000F038FC004800470D3F000805
:10014000D01800200648804706480047FEE7FEE733
:10015000FEE7FEE7FEE7FEE7FEE7FEE7FEE7FEE777
:10016000692600083101000800487047A04E0008C9
:1001700010B50446FFF7F8FF0068005D00F00100CD
:1001800010BD40EA01039B0703D009E008C9121F14
:1001900008C0042AFAD203E011F8013B00F8013B41
:1001A000521EF9D27047D2B201E000F8012B491E6D
:1001B000FBD270470022F6E710B513460A46044604
:1001C0001946FFF7F0FF204610BD421C10F8011B36
:1001D0000029FBD1801A7047CBB203E00178994225
:1001E00003D0401C521EF9D20020704730B504469F
:1001F0000020034600E05B1C934203D2E05CCD5C30
:10020000401BF8D030BD2DE9F04791460F4680469F
:100210000446002614F8015B2DB1FFF7A5FF006826
:10022000405DC007F6D12B2D02D02D2D18D0641EB5
:100230004A463946204600F06DFA27B13968A14296
:1002400001D1C7F8008071054FF002040BD5404280
:10025000002803DD03F0F0F80460A007BDE8F08794
:1002600046F48066E4E70028F8DA03F0E5F8046075
:100270006FF00040F2E72DE9FE4F804681EA03006F
:10028000C00F0C46009021F0004123F00045B8EB70
:100290000200A94105D24046214690461C460B4625
:1002A000024623F00040104347D0270DC7F30A0051
:1002B000C3F30A510290401A019040286BDAC3F34D
:1002C000130040F4801B0098924620B10023D2EB2B
:1002D000030A63EB0B0B01985946C0F140025046EC
:1002E00000F0E7F906460D4650465946019A00F0DF
:1002F000FFF910EB08006141002487EA115284EAFB
:10030000E7731A4340D0009A62B3019A012A4FEA78
:10031000075215DC001B61EB02014FF0004202EABC
:100320000752CDE90042001C41F5801132462B46B0
:1003300000F0D4FA03B0BDE8F08F40462146F9E75B
:10034000001B61EB0201001C41F5801300185B41AA
:100350002018A2F5001747EB030140EAD570B61943
:100360006D4111E06D084FEA360645EAC0754FEA67
:100370000752001B61EB0201001C41F58011490886
:100380004FEA30000019514132462B4603B0BDE818
:10039000F04F00F094BA0098012240000023D0EB07
:1003A000020263EBE073009821464FEAE074B8EB79
:1003B000000061EB0401E9E783F000435BE781F0B3
:1003C000004158E72DE9FE4F81EA030404F00044A0
:1003D00021F0004100944FF0000B23F0004350EA5D
:1003E00001045ED052EA03045BD0C3F30A54C1F3A4
:1003F0000A552C44A4F2F3340194A0FB0254C1F337
:10040000130141F48011C3F3130343F4801301FB80
:10041000024400FB034E840A970A44EA815447EAE7
:100420008357A4FB076802958D0A05FB07854FEAF1
:10043000932C04FB0C542705029D4FEA065847EA0B
:100440001637B5EB08056EEB070C870E920E47EAE0
:10045000811742EA8312A7FB0201B6EB0B0164EBA2
:1004600000042B0D43EA0C335E1844EB1C50DA46B3
:100470005146E7FB0201C5F313044FEA0B3343EA8D
:1004800014534FEA0432019C43EA0603A4F10C041E
:100490000294009CCDE900B400F020FA03B0BDE85E
:1004A000F08F00200146F9E72DE9F04D81EA0304C1
:1004B00004F0004B21F0004514464FF0000A23F0F1
:1004C000004150EA050220D054EA01021DD0C5F3D4
:1004D0000A570246C5F31303C1F31300C1F30A56CA
:1004E00040F4801543F48013A7EB0608101BD64692
:1004F00008F2FD3873EB050002D308F1010801E0B2
:1005000092185B41B8F1000F03DA00200146BDE804
:10051000F08D00204FF48011064684460EE0171B34
:1005200073EB050705D3121B63EB050306434CEA87
:10053000010C49084FEA300092185B4150EA01076C
:10054000EDD152EA030012D082EA040083EA0501E9
:10055000084305D0101BAB4106D20122002306E060
:1005600000224FF0004302E06FF0010253101AEB3B
:1005700006004CEB085110EB0A0041EB0B01BDE803
:10058000F04D00F09CB90EB5C10F80EAE070084450
:10059000CA07002140F233438DE80E000A460B469D
:1005A00000F09CF903B000BD0EB540F2334102915A
:1005B0000021CDE900110A460B4600F08FF903B087
:1005C00000BDC1F30A5210B5C1F3130140F2FF336D
:1005D00041F480119A4201DA002010BD40F2334309
:1005E0009A42A2F2334203DC524200F071F810BD8D
:1005F000904010BD30B5041E71F1000404DB4FF0D3
:100600000044404264EB0101141E73F1000405DB59
:100610001C464FF00043524263EB0403994208BF6B
:10062000904230BD30B50B46014600202022012407
:1006300009E021FA02F59D4205D303FA02F5491BB0
:1006400004FA02F52844151EA2F10102F1DC30BDC6
:100650002DE9F05F0546002092469B4688460646F7
:10066000814640241BE0284641464746224600F08A
:100670002FF853465A46C01A914110D311461846D6
:10068000224600F016F82D1A67EB01084F46224665
:100690000120002100F00DF817EB00094E41201E4B
:1006A000A4F10104DFDC484631462A464346BDE852
:1006B000F09F202A04DB203A00FA02F10020704764
:1006C0009140C2F1200320FA03F319439040704790
:1006D000202A04DB203A21FA02F00021704721FA97
:1006E00002F3D040C2F120029140084319467047FE
:1006F000202A06DBCB17203A41FA02F043EAE073E6
:1007000006E041FA02F3D040C2F1200291400843D2
:10071000194670472DE9F05F82460078002715469C
:100720008B460AF10104B946302801D09DB113E08F
:1007300014F8010B0127782803D0582801D045B1BF
:100740000AE00DB1102D07D10027102514F8010B78
:1007500002E0082500E00A250026B0460EE005FB71
:10076000080005FB06F1012701EB10461FFA80F88F
:10077000B6F5803F00D3B94614F8010B294600F0C6
:1007800025F90028EBDABBF1000F05D00FB1641E8C
:1007900000E05446CBF80040B9F1000F06D002F05B
:1007A0004BFE02210160C81EBDE8F09F48EA0640EA
:1007B000FAE700000FB4002300B589B00CA900913E
:1007C0000B996FF00042CB601E4B06931E4B0793B4
:1007D0000423CDE901321D4A089202466B460020EF
:1007E00000F082F909B05DF814FB70B586B00646DA
:1007F0004FF0FF300091CDE90101002015460C4675
:1008000004903246694604A8FFF7D4FF03460498D3
:10081000211825B108B10A4600E022462A600028C6
:100820000DD0002B02DD0098884208D0081B0094F0
:10083000CDE901043246694604A8FFF7BBFF06B0C4
:1008400070BD0000210D00083F0D00087101000877
:100850000029A8BF7047401C490008BF20F00100D4
:10086000704710B4B0FA80FC00FA0CF050EA0104B2
:1008700004BF10BC704749B1CCF1200421FA04F444
:1008800011FA0CF118BF012121430843A3EB0C011D
:10089000CB1D4FEA00614FEA102042BF002010BC80
:1008A000704700EBC35010440029A4BF10BC704730
:1008B000401C490008BF20F0010010BC704710B573
:1008C000141E73F1000408DA401C41F10001921873
:1008D0005B411A4301D120F0010010BD2DE9F04D1C
:1008E00092469B4611B1B1FA81F202E0B0FA80F271
:1008F00020329046FFF7DDFE04460F4640EA0A002C
:1009000041EA0B0153465A46084313D0114653EAB5
:10091000010019D0C8F140025046FFF7D9FE054644
:100920000E46504659464246FFF7C3FE084305D0DF
:10093000012004E020463946BDE8F08D0020054343
:1009400046EAE0762C4337430A986305E40AA0EBB5
:1009500008000022FD0A44EA47540A3002D500206C
:100960000146E9E7010510196941DDE9084500196B
:100970006941BDE8F04DA2E7C1F30A52C1F313018A
:1009800040F2FF3341F480119A4202DA002001461E
:10099000704740F233439A42A2F2334202DC5242A1
:1009A000FFF796BEFFF785BE064C074D06E0E068F0
:1009B00040F0010394E8070098471034AC42F6D3A6
:1009C000FFF7BAFB104F0008304F00083A2800D25A
:1009D000303820F02002412A01D3A2F137008842AA
:1009E00001D34FF0FF3070472DE9FF4F087881B0F9
:1009F0009946FF2805D0491C2D2804D00024002347
:100A000008E000230BE00124F9E703EB830300EB8C
:100A10004303491C0878FF28F7D104B15B4200204A
:100A20000090147801462D2C01D02B2C04D1521C9F
:100A30002D2C12D00024009400251678FF2E0ED005
:100A40000A24A0FB04C801FB0481002700FB071156
:100A5000521C16EB0C006941EFE70124EBE79944C7
:100A600050EA01020ED00024AA4D2646DFF8A882E3
:100A700000F076F982468B46B9F1000009DAC9F137
:100A800000071BE001980021C0E9001105B0BDE896
:100A9000F08F074612E0F80707D022462B46304673
:100AA0004146FFF78FFC0646884622462B461046F5
:100AB0001946FFF787FC04460D467F10002FEAD148
:100AC000B9F1000F324643465046594602DAFFF765
:100AD000EBFC01E0FFF776FC009A0AB181F00041DF
:100AE000019AC2E90001D1E72DE9FF4F1F468DB001
:100AF000D7E901464FF0FF382E2045464FF0000958
:100B00000B90B9696D1C0E988847396A82468847F0
:100B10000028F6D1BAF1FF3F0AD024F4D064002EA9
:100B200011DDBAF12B0F08D0BAF12D0F0BD102E075
:100B3000404611B0ABE744F48064B9696D1C0E986F
:100B400088478246761E6946600501D52D2000E063
:100B50002B208DF8000001F1010B0DF1200809E0B8
:100B6000B9696D1C0E98884782460F9844F400744A
:100B7000761E0560002E02DDBAF1300FF0D00B9921
:100B80008A453ED144F0800406E00F99681CA9F123
:100B9000010944F400740860B9696D1C761E0E9852
:100BA000884782463028F0D02BE00B998A4505D142
:100BB000200603D444F08004761E18E0504602F06C
:100BC00001FD08B30DF11301761E44F400748B454A
:100BD00008D2AAF130000BF8010B200607D5A9F1C5
:100BE000010003E0200602D409F101008146A005BE
:100BF00002D50F99681C0860B9696D1C0E9888476A
:100C00008246002ED1DC53E0002E51DDBAF1650F93
:100C100002D0BAF1450F4BD1A00549D5B9696D1C79
:100C200024F44074761E0E9888478246002E0CDD10
:100C30002B2804D0BAF12D0F07D144F48074B96980
:100C40006D1C0E9888478246761EE00501D52D2141
:100C500000E02B2108F8011BCDF82C8021E00DF1DC
:100C60002901761E44F4007488450CD2AAF13000A4
:100C700010F0FF0088F8000002D10B99884509D9CF
:100C800008F1010806E0E00501D5244801E042F240
:100C90000F708146B9696D1C0E98884782460F987F
:100CA0000560002E04DD504602F08CFC0028D6D1F1
:100CB000F9690E988847FF208BF8000088F800003B
:100CC0000020069007904B466A4608A906A8FFF741
:100CD0008BFEA00502D46FF001002AE714F0240F68
:100CE0000AD0E00714D1DDE906123868031D3B6025
:100CF0000068C0E900120BE0DDE9060100F03CF8F5
:100D00000146E00704D13868021D3A6000680160BE
:100D100028460EE7000024400000F03FF1D8FFFF16
:100D2000426842B1016811F8013B23B1521EC0E98B
:100D30000012184670470121C160881E7047426842
:100D40005AB1C368016843B983688B4205D0491E14
:100D5000521CC0E90012002070474FF0FF3070476E
:100D60000EB540F2334202920022CDE90022134632
:100D7000FFF7B4FD03B000BD01F0004330B421F033
:100D8000004150EA010206D00A0DA2F56072C1F3DB
:100D90001301002A02DC30BC00207047440F44EAF3
:100DA000C104C100E01830BC00EBC250FFF750BDD9
:100DB00001468A78CB7842EA0320704700BFFEE7FD
:100DC0002DE9F14F82B0002001900298FFF7ECFB73
:100DD000804600220A4BFFF7F5FA06460022094B2F
:100DE000FFF762FB04460022074BFFF7EBFA82464F
:100DF000FFF7E7FB80B201900198BDE8FE8F00008D
:100E00000000F03F0000594000408F4010B50446FC
:100E10002CB901220B21002001F0ECF804E00022A3
:100E20000B21104601F0E6F810BD704730B50246C0
:100E30000B46002111E012F8015B81EA0521002434
:100E400009E001F4004020B141F2210080EA4101B3
:100E500000E04900641C082CF3DB581E031EEADA8C
:100E600088B230BD10B500F063FA10BD10B502F0C5
:100E7000B2FA10BD00200149087070475A000020E6
:100E800001200149087070475A00002000F080518D
:100E900011B10349086001E0024948607047000051
:100EA000040402400000024021B1026842F0010245
:100EB000026004E002684FF6FE731A400260704759
:100EC00001684FF6FE72114001600021016041602F
:100ED0008160C1604B49884208D14A490839496854
:100EE00041F00F01474A083A51608AE04549143100
:100EF000884208D143490839496841F0F001414A24
:100F0000083A51607DE03F492831884208D13D4987
:100F10000839496841F470613A4A083A516070E012
:100F200038493C31884208D136490839496841F48A
:100F30007041344A083A516063E032495031884286
:100F400008D130490839496841F470212D4A083ADE
:100F5000516056E02B496431884208D1294908394B
:100F6000496841F47001274A083A516049E025492F
:100F70007831884208D123490839496841F07061C5
:100F8000204A083A51603CE01F49884206D1011FBF
:100F9000096841F00F01021F116032E01A49143153
:100FA000884208D11849091F096841F0F001164A22
:100FB000121F116025E014492831884208D11249D6
:100FC000091F096841F470610F4A121F116018E08F
:100FD0000D493C31884208D10B49091F096841F489
:100FE0007041094A121F11600BE0074950318842D5
:100FF00007D10549091F096841F47021024A121FEF
:1010000011607047080002400804024001460020B9
:10101000002201F0805313B1054B1A6801E0054B23
:101020001A6802EA01030BB1012000E000207047BA
:1010300000040240000002401AB103680B43036041
:1010400002E003688B430360704710B5002202681A
:1010500047F6F0739A430C6A8B6823430C69234369
:101060004C6923438C692343CC6923434C6A234353
:101070008C6A23431A430260CB6843600B68836029
:101080004B68C36010BD000000B58DB0012108465B
:1010900000F0C6FB1F48FFF713FF1F4802901F48D0
:1010A0000390102004900A200590002006908020D4
:1010B00007900020089009900A904FF480500B9000
:1010C00000200C9002A91348FFF7BFFF4FF4C06047
:1010D00000F0F6F90E208DF8040001208DF80500CF
:1010E00000208DF8060001208DF8070001A800F00F
:1010F000AFF9012202210748FFF79EFF01210548B1
:10110000FFF7D2FE012280210348001F02F04AF8B7
:101110000DB000BD440002400438014034020020FC
:1011200070472DE9F04102460025002600200023EB
:101130000024002791F803C00CF00F0591F803C0BC
:101140000CF0100CBCF1000F03D091F802C04CEA77
:10115000050591F800C0BCF1000F31D014680020E3
:101160002BE04FF0010C0CFA00F3B1F800C00CEAD0
:1011700003069E4220D183004FF00F0C0CFA03F7B8
:10118000BC4305FA03FC4CEA040491F803C0BCF12B
:10119000280F06D14FF0010C0CFA00FCC2F814C065
:1011A0000AE091F803C0BCF1480F05D14FF0010CE3
:1011B0000CFA00FCC2F810C0401C0828D1D31460FF
:1011C000B1F800C0BCF1FF0F34DD546800202EE000
:1011D00000F1080C4FF0010808FA0CF3B1F800C058
:1011E0000CEA03069E4221D183004FF00F0C0CFA4B
:1011F00003F7BC4305FA03FC4CEA040491F803C06E
:10120000BCF1280F05D100F1080C08FA0CF8C2F85F
:10121000148091F803C0BCF1480F07D100F1080C0D
:101220004FF0010808FA0CF8C2F81080401C08289A
:10123000CED35460BDE8F0814161704701617047D1
:1012400010B5034803F0CDFD024803F03DFB10BD8F
:10125000B8000020200200202DE9F041234B4FF47C
:1012600080722349234803F0ABF80020224908701C
:101270001E480022214BD0E910613046FFF7A2F84A
:101280000446FFF79EF91E490860184800221B4BD0
:10129000D0E912613046FFF795F80446FFF791F95F
:1012A0001749486011480022144BD0E918613046B4
:1012B000FFF788F80446FFF784F9114988600B4866
:1012C00000220E4BD0E916613046FFF77BF804464A
:1012D000FFF777F90A490861044890F8700008732D
:1012E000024890F874004873BDE8F081B80000200F
:1012F000CA020020200200205C000020006AF840A2
:10130000A000002008B54FF4C06000F0D9F80D200F
:101310008DF8000001208DF8010000208DF80200FA
:1013200001208DF80300684600F092F808BD000027
:1013300010B54FF48060FFF769FE30B10120094914
:1013400008708002FFF7A2FD0AE04FF40070FFF77B
:101350005DFE28B10120044908704002FFF796FDA8
:1013600010BD00005C0000205B0000202DE9F04172
:10137000234B4FF480722349234803F021F80020C7
:10138000224908701E480022214BD0E910613046E6
:10139000FFF718F80446FFF714F91E4908601848CB
:1013A00000221B4BD0E912613046FFF70BF80446D0
:1013B000FFF707F91749486011480022144BD0E99C
:1013C00018613046FEF7FEFF0446FFF7FAF81149B0
:1013D00088600B49D1E9166100220D4B3046FEF7BB
:1013E000F1FF0446FFF7EDF80A490861044890F858
:1013F00070000873024890F874004873BDE8F081EB
:10140000B8000020CA030020200200205B0000205A
:10141000006AF840A000002002E002A001F0EAFF0C
:10142000FBE700000D0ABDF8C8EBD3B2BCFEB4ED7B
:10143000CEF3D6D0B6CF0D0A0000000000BFFEE705
:10144000704710B54FF4A06000F03AF810BD0000EE
:1014500070B5002100230F22C47804B3154C246812
:1014600004F4E064C4F5E064210AC1F10403CA4055
:10147000447804FA03F184781440214309010E4CA6
:101480000678A155047804F01F050124AC400578C6
:101490006D11AD0005F1E025C5F8004109E00478C3
:1014A00004F01F050124AC40044D0678761145F880
:1014B000264070BD0CED00E000E400E080E100E0BB
:1014C00002490143024A1160704700000000FA051A
:1014D0000CED00E0704710B504460CB9002010BDBB
:1014E0002079112803D1002000F075FA02E00120D4
:1014F00000F071FA0120F2E738B50446002500201B
:10150000009004B938BD6946204600F043FA05460C
:101510000DB900200090207928B99DF80010002016
:1015200000F07AFA1EE02079012804D19DF800101D
:1015300000F072FA16E02079022804D19DF800101C
:1015400000F06AFA0EE02079032804D19DF800101B
:1015500000F062FA06E02079042803D19DF800101B
:1015600000F05AFA0120CDE70179132907D1074984
:10157000096821F00101491C044A116005E0034992
:10158000096821F00101014A116070473400002010
:1015900038B5044600200090002504B938BD6946DE
:1015A000204600F0F7F905460DB90020F6E79DF852
:1015B000000060B920790F2804D10021084600F00E
:1015C00023FB14E00121002000F01EFB0FE09DF83A
:1015D000000001280BD120790F2804D1002101201F
:1015E00000F012FB03E00121084600F00DFB012092
:1015F000D4E738B5044600200090002504B938BD72
:101600006946204600F0C6F905460DB90020F6E708
:101610009DF80000642801DD0020F0E720790D2806
:1016200005D19DF80010002000F078FB07E020793C
:101630000E2804D19DF80010012000F06FFB01205E
:10164000DDE738B5044600250020009004B938BD18
:101650006946204600F09EF905460DB90020F6E7E0
:101660002079052805D19DF80010002000F072FBBC
:101670003DE02079062805D19DF80010012000F0FA
:1016800069FB34E02079072805D19DF8001002207D
:1016900000F060FB2BE02079082805D19DF80010B0
:1016A000032000F057FB22E02079092805D19DF89E
:1016B0000010042000F04EFB19E020790A2805D123
:1016C0009DF80010052000F045FB10E020790B2864
:1016D00005D19DF80010062000F03CFB07E02079C2
:1016E0000C2804D19DF80010072000F033FB0120E6
:1016F000ADE710B50446204600F066F908B90020B1
:1017000010BD2079152833D2DFE800F00B0C0D0E48
:101710000F131415161718191A1E1F232428292D04
:101720002E0000BF00BF00BF00BF2046FFF7E4FE51
:1017300020E000BF00BF00BF00BF00BF00BF00BF70
:101740002046FFF77EFF15E000BF2046FFF751FF60
:1017500010E000BF2046FFF71BFF0BE000BF204654
:10176000FFF7B9FE06E000BF2046FFF7FDFE01E0EF
:101770000020C5E700BF0120C2E70000F8B5002047
:10178000009000250024002600272448007800F05F
:10179000010020B1684600F011FA05460AE01F4832
:1017A0000078C0F3400028B91C480078C0F38000DE
:1017B00000B900BF0DB90020F8BDE81D86B2304663
:1017C00002F0C8FB04460CB90020F5E7FF202070AA
:1017D00002206070A570280AE070052020712A465A
:1017E000601D0099FEF7CDFCB11E2046FFF71EFBE1
:1017F00087B2380AA11901F8020CA11901F8017C7D
:101800003146204600F078FA4FF4FA7000F00CFFF1
:10181000204602F053FB0120CEE7000034000020F8
:1018200029B1064A52690243044B5A6104E0034A53
:1018300052698243014B5A61704700000010024018
:1018400029B1064AD2690243044BDA6104E0034A33
:10185000D2698243014BDA617047000000100240F8
:1018600029B1064A12690243044B1A6104E0034A93
:1018700012698243014B1A61704700000010024058
:1018800029B1064A92690243044B9A6104E0034A73
:1018900092698243014B9A61704700000010024038
:1018A00029B1064AD2680243044BDA6004E0034AD5
:1018B000D2688243014BDA6070470000001002409A
:1018C00030B500210022002400232D4D6D6805F065
:1018D0000C0121B1042905D0082923D105E0294DA7
:1018E000056022E0274D05601FE0254D6D6805F479
:1018F0007012234D6D6805F48034022505EB924289
:101900001CB9214D554305600BE01D4D6D6805F474
:1019100000351DB11C4D5543056002E0194D55437E
:10192000056002E0174D056000BF00BF144D6D68F3
:1019300005F0F0010909154D6B5C0568DD40456057
:101940000F4D6D6805F4E061090A104D6B5C456848
:10195000DD4085600A4D6D6805F46051C90A0B4D84
:101960006B5C4568DD40C560054D6D6805F4404120
:10197000890B074D6B5CC568B5FBF3F5056130BDA0
:101980000010024000127A0000093D0014000020FF
:101990002400002070B505460E4600242846FFF7B7
:1019A00007FA04460CB9002070BD22463046A968EB
:1019B000FEF7E7FB2046F7E710B50249886802F01A
:1019C0007DFA10BD9000002001464878012800D122
:1019D00070470020FCE710B504462CB901220C2109
:1019E000002000F007FB04E000220C21104600F06C
:1019F00001FB10BD10B5022305220C21002000F0D0
:101A000025FA00220C21104600F0F4FA10BD10B5A2
:101A100002F002FA10BD00002DE9F04104460F4625
:101A20006148007810B96148007801E060480078AA
:101A300005466048007810B95C48007801E05E48CF
:101A400000780646052C7DD2DFE804F003244566C5
:101A500089000221002000F0E1FC0021084600F08E
:101A600031FD0221012000F0D9FC0021012000F00D
:101A700029FD0221084600F0D1FC0021022000F0DF
:101A800021FD0221012000F0C9FC0021032000F00B
:101A900019FD86E00021084600F0C0FC2946002020
:101AA00000F010FD0021012000F0B8FC31460120BB
:101AB00000F008FD0021022000F0B0FC29460220C1
:101AC00000F000FD0021032000F0A8FC31460320B7
:101AD00000F0F8FC65E00121002000F09FFC2946A1
:101AE000002000F0EFFC0121084600F097FC314691
:101AF000012000F0E7FC0121022000F08FFC2946C4
:101B0000022000F0DFFC0121032000F087FC3146B9
:101B1000032000F0D7FC44E00121002000F07EFC0F
:101B20002946002000F0CEFC0021012000F076FCC8
:101B30003146012000F0C6FC0121022000F06EFCBD
:101B4000294600E02CE0022000F0BCFC002103202C
:101B500000F064FC3146032000F0B4FC21E00021D9
:101B6000084600F05BFC2946002000F0ABFC012198
:101B7000084600F053FC3146012000F0A3FC002190
:101B8000022000F04BFC2946022000F09BFC0121C2
:101B9000032000F043FC3146032000F093FC00E0FA
:101BA00000BF00BFBDE8F0812A0000202C0000200B
:101BB000280000202B0000202900002070B50446DA
:101BC000002500F02FF928B1FFF746FB08482060F8
:101BD00014250BE000F030F928B1FFF7C7FB0448EB
:101BE0002060142502E0002020600025284670BDFA
:101BF000A000002010B54FF4165001F0D7F900F006
:101C000045FBFFF71DFB10BD70B505460C4615B131
:101C1000012D08D103E02046FFF7F8F804E0204644
:101C2000FFF703F900E000BF00BF70BD10B502234D
:101C300005220B21002000F009F900220B2110469B
:101C400000F0D8F910BD10B5022305220621184670
:101C500000F0FCF8022305220721184600F0F6F8F0
:101C6000022305220821184600F0F0F8022305227D
:101C70000921184600F0EAF801220621022000F0AE
:101C8000B9F901220721022000F0B4F9012208214C
:101C9000022000F0AFF901220921022000F0AAF988
:101CA000472144F6206000F093FD002244F62061B5
:101CB000012000F019FA002244F62061022000F011
:101CC00013FA002244F62061032000F00DFA0022EE
:101CD00044F62061042000F007FA10BD70B50446F8
:101CE000002510222146002000F0DCFA05460DB93F
:101CF000012070BD0020FCE770B504460D46294662
:101D0000204600F0ADFA70BD10B5FFF79AFB40F623
:101D10000F61272000F0D8FC10BD000010B1012891
:101D20000CD105E00122074B1A70074A117006E03A
:101D30000122064B1A70064A117000E000BF00BF76
:101D4000704700002A000020280000202B000020FF
:101D50002900002070B504460D46002D01DBB42D8E
:101D600001DD002070BD1CB9284600F017FC28E0FA
:101D7000012C03D1284600F049FC22E0022C03D1BB
:101D8000284600F035FC1CE0032C03D1284600F067
:101D9000F7FB16E0042C03D1284600F0E3FB10E02B
:101DA000052C03D1284600F015FC0AE0062C03D1CF
:101DB000284600F001FC04E0072C02D1284600F080
:101DC000C3FB0020CEE710B5472144F6206000F0A9
:101DD00077FD4B2244F62061052000F0C5F94B2227
:101DE00044F62061062000F0BFF94B2244F6206142
:101DF000072000F0B9F94B2244F62061082000F0DA
:101E0000B3F9472144F6206000F0E2FD4B2244F68E
:101E10002061092000F0E6F910BD10B500F03AFA93
:101E200010BD00000348007808B101207047002071
:101E3000FCE700005C0000200348007808B10120A6
:101E400070470020FCE700005B0000202DE9F84F00
:101E500004460D4616461F46DFF87C814FF0010907
:101E60004FF0100A4FF0010B072C36D2DFE804F0D8
:101E7000040B121920272E0001210420FFF700FD7A
:101E8000DFF854812AE001210820FFF7F9FCDFF890
:101E90004C8123E001211020FFF7F2FCDFF84081A4
:101EA0001CE001212020FFF7EBFCDFF8388115E072
:101EB00001214020FFF7E4FCDFF82C810EE0012136
:101EC0008020FFF7DDFCDFF8248107E00121080214
:101ED000FFF7D6FCDFF8188100E000BF00BF102D2F
:101EE00039D2DFE805F0080B0E1114171A1D202354
:101EF00026292C2F32354FF001092DE04FF0020931
:101F00002AE04FF0040927E04FF0080924E04FF0E1
:101F1000100921E04FF020091EE04FF040091BE0BE
:101F20004FF0800918E04FF4807915E04FF4007904
:101F300012E04FF480690FE04FF400690CE04FF4B9
:101F4000805909E04FF4005906E04FF4804903E05E
:101F50004FF4004900E000BF00BF082E1DD2DFE8AB
:101F600006F004070A0D101316194FF0000A15E0C9
:101F70004FF0040A12E04FF0280A0FE04FF0480A31
:101F80000CE04FF0140A09E04FF0100A06E04FF0A1
:101F90001C0A03E04FF0180A00E000BF00BF27B1A1
:101FA000012F05D0022F09D105E04FF0010B06E00B
:101FB0004FF0020B03E04FF0030B00E000BF00BF47
:101FC000ADF800908DF803A08DF802B06946404648
:101FD000FFF7A7F8BDE8F88F00080140000C0140AA
:101FE000001001400014014000180140001C014095
:101FF000002001402DE9F04104460D461646334FBE
:102000004FF00108072C13D2DFE804F00406080A99
:102010000C0E10002D4F0CE02D4F0AE02D4F08E064
:102020002D4F06E02D4F04E02D4F02E02D4F00E034
:1020300000BF00BF102D39D2DFE805F0080B0E11EC
:1020400014171A1D202326292C2F32354FF0010892
:102050002DE04FF002082AE04FF0040827E04FF08F
:10206000080824E04FF0100821E04FF020081EE09F
:102070004FF040081BE04FF0800818E04FF48078E4
:1020800015E04FF4007812E04FF480680FE04FF451
:1020900000680CE04FF4805809E04FF4005806E067
:1020A0004FF4804803E04FF4004800E000BF00BF59
:1020B000012E04D141463846FFF7C0F804E01EB9AE
:1020C00041463846FFF7B8F8BDE8F0810008014006
:1020D000000C0140001001400014014000180140B4
:1020E000001C014000200140FEB505460C46164686
:1020F000A0B2ADF804004720ADF800000120ADF813
:1021000006000020ADF8020069464FF0804000F064
:102110006DFE4FF47A70B4FBF0F006FB104087B20E
:10212000012D06D0022D0AD0032D0ED0042D18D17A
:1021300011E039464FF0804000F04FFE12E0394682
:102140004FF0804000F04BFE0CE039464FF08040ED
:1021500000F047FE06E039464FF0804000F043FEB5
:1021600000E000BF00BFFEBDFEB505460C461646AA
:10217000A0B2ADF804004720ADF800000120ADF892
:1021800006000020ADF802006946154800F02EFE5A
:102190004FF47A70B4FBF0F006FB104087B2052DC7
:1021A00006D0062D09D0072D0CD0082D14D10EE035
:1021B00039460B4800F011FE0FE03946084800F0A0
:1021C0000EFE0AE03946064800F00BFE05E03946EF
:1021D000034800F008FE00E000BF00BFFEBD0000A5
:1021E00000040040FEB505460C461646A0B2ADF808
:1021F00004004720ADF800000120ADF806000020E3
:10220000ADF802006946154800F0F0FD4FF47A7011
:10221000B4FBF0F006FB104087B2012D06D0022D72
:1022200009D0032D0CD0042D14D10EE039460B48F3
:1022300000F0D3FD0FE03946084800F0D0FD0AE079
:102240003946064800F0CDFD05E03946034800F068
:10225000CAFD00E000BF00BFFEBD00000008004056
:1022600000B503460A460848406C20F001000649C4
:102270004864084603658264406C40F0010048648D
:10228000FEF7FEFD00BD00000000024010B500F0AA
:1022900053FE10BD10B54FF4165000F0F9FDFEF7D7
:1022A000F3FE10BD2DE9F04781460F46924600250A
:1022B000A84600263C461C480078002832D01B481F
:1022C00080781A49C97840EA0126F01D85B2A91E16
:1022D0001648FEF7ABFD1FFA80F8304601F03AFED3
:1022E000A0601248007820701048407860700F4855
:1022F0008078A0700D48C078E0700C48007920719B
:10230000A81E0A49085C2073681E085C20703246CB
:10231000491DA068FDF735FF002003490870012022
:10232000BDE8F0870020FBE7500000209802002065
:10233000704710B500F002F810BD00000CB5002089
:10234000019000903348006840F4803031490860C3
:1023500000BF3048006800F4003000900198401C35
:102360000190009818B90198B0F5A06FF1D12948F3
:10237000006800F4003010B10120009001E000205E
:1023800000900098012843D12348006840F01000D5
:10239000214908600846006820F0030008600846EC
:1023A000006840F0020008601A4840681949486017
:1023B0000846406848600846406840F480604860CD
:1023C0000846406820F47C1048600846406840F4A5
:1023D000E81048600846006840F08070086000BF60
:1023E0000C48006800F000700028F9D009484068E7
:1023F00020F00300074948600846406840F00200AA
:10240000486000BF0348406800F00C000828F9D17C
:102410000CBD0000001002400020024070B50546CF
:102420000C4626480078A84204D125480078A042EE
:1024300000D170BD214805702148047035B1012DCF
:1024400011D0022D1CD0032D34D126E02CB901224D
:1024500009210220FFF7CEFD04E00022092102201D
:10246000FFF7C8FD27E02CB9012208210220FFF761
:10247000C1FD04E0002208210220FFF7BBFD1AE0A5
:102480002CB9012207210220FFF7B4FD04E000224D
:1024900007210220FFF7AEFD0DE02CB90122062135
:1024A0000220FFF7A7FD04E0002206210220FFF72B
:1024B000A1FD00E000BF00BF00BFBAE72D00002073
:1024C0002E00002070B504460D4600261C480078FA
:1024D000A04204D11B480078A84200D170BD184822
:1024E0000470184805702846FEF76AFC064634B1A9
:1024F000012C0BD0022C10D0032C1CD114E032463E
:1025000044F620610120FFF7EFFD15E0324644F666
:1025100020610220FFF7E8FD0EE0324644F620611C
:102520000320FFF7E1FD07E0324644F62061042076
:10253000FFF7DAFD00E000BF00BF00BFCEE70000FC
:102540002F0000203000002070B5044600252046F2
:1025500001F044FC05462A4644F620610C20FFF7B2
:1025600003FE70BD70B504460025204601F036FC20
:1025700005462A4644F620610920FFF7F5FD70BDA7
:1025800070B504460025204601F028FC05462A4681
:1025900044F620610820FFF7E7FD70BD70B50446E2
:1025A0000025204601F01AFC05462A4644F6206123
:1025B0000520FFF7D9FD70BD70B504460025204603
:1025C00001F00CFC05462A4644F620610B20FFF77B
:1025D000CBFD70BD70B504460025204601F0FEFB22
:1025E00005462A4644F620610A20FFF7BDFD70BD6E
:1025F00070B504460025204601F0F0FB05462A464A
:1026000044F620610720FFF7AFFD70BD70B50446AA
:102610000025204601F0E2FB05462A4644F62061EB
:102620000620FFF7A1FD70BD10B5044602E00120B1
:1026300001F014FC2000A4F10104F8D110BD04281D
:1026400008D14FF0E021096941F004014FF0E02288
:10265000116107E04FF0E021096921F004014FF01A
:10266000E02211617047704710B51348006840F0D0
:1026700001001149086008464068104908400E49A9
:102680004860084600680E4908400B490860084643
:10269000006820F4802008600846406820F4FE00AE
:1026A00048604FF41F008860FFF743FE4FF0006062
:1026B0000449086010BD0000001002400000FFF84F
:1026C000FFFFF6FE08ED00E07FB505460C46012150
:1026D000C802FFF7D5F8ADF80850ADF80440012066
:1026E000ADF80A000020ADF8060001A90D4800F081
:1026F0007DFB012211460B4800F00AFA19208DF8E3
:10270000000000208DF8010003208DF80200012058
:102710008DF803006846FEF79BFE0121014800F09A
:10272000DCF97FBD002C014010B50121214800F0EB
:10273000D1F921480068401C1F490860084600681C
:10274000B0F57A7F01D3002008601B48007800F0C4
:10275000010010B9012019490870174800680521C7
:10276000B0FBF1F201FB120010B90120144908700E
:10277000114800680A21B0FBF1F201FB120010B908
:102780000120104908700C4800683221B0FBF1F2BA
:1027900001FB120010B901200B49087006480068BF
:1027A0006421B0FBF1F201FB120010B901200749CE
:1027B000087010BD002C0140380000203C000020B3
:1027C0003D0000203E0000203F000020400000208F
:1027D00030B589B005460C4601210846FFF730F8B0
:1027E00001210420FFF74CF80F20ADF8200018203D
:1027F0008DF8230003208DF8220008A92F48FEF74A
:1028000090FCADF81850ADF814400120ADF81A0056
:102810000020ADF8160005A94FF0804000F0E6FA60
:102820007020ADF804000120ADF806000020ADF8DE
:102830000A00ADF80C0001A94FF0804000F072F9D9
:1028400001A94FF0804000F0C3F901A94FF080408A
:1028500000F01EFA01A94FF0804000F073FA012148
:10286000880700F046F90821C80600F0A7F90821FA
:10287000C80600F0FFF90821C80600F059FA08213F
:10288000C80600F09DFA0121880700F017F96421BD
:10289000080700F0A2FA6421080700F0A0FA6421FA
:1028A000080700F09EFA6421080700F09CFA012155
:1028B000880700F012F909B030BD0000000801409F
:1028C00030B589B005460C4601210220FEF7B8FF5D
:1028D00001210820FEF7D4FF01210420FEF7D0FFDC
:1028E000C020ADF8200018208DF8230003208DF8BB
:1028F000220008A93348FEF714FC0320ADF820009D
:1029000018208DF8230003208DF8220008A92E48F6
:10291000FEF707FCADF81850ADF814400120ADF8F3
:102920001A000020ADF8160005A9284800F05EFA4C
:102930007020ADF804000120ADF806000020ADF8CD
:102940000A00ADF80C0001A9204800F0EBF801A93D
:102950001E4800F03DF901A91C4800F099F901A9B1
:102960001A4800F0EFF90121184800F0C2F80821D8
:10297000164800F023F90821144800F07BF90821DB
:10298000124800F0D5F90821104800F019FA012189
:102990000E4800F093F864210C4800F01EFA642100
:1029A0000A4800F01CFA6421084800F01AFA642171
:1029B000064800F018FA0121044800F08EF809B02A
:1029C00030BD000000080140000C01400004004040
:1029D00030B589B005460C4601210420FEF730FFD2
:1029E00001210820FEF74CFF4FF47070ADF8200075
:1029F00018208DF8230003208DF8220008A92D4807
:102A0000FEF78FFBADF81850ADF814400120ADF87B
:102A10001A000020ADF8160005A9274800F0E6F9D5
:102A20007020ADF804000120ADF806000020ADF8DC
:102A30000A00ADF80C0001A91F4800F073F801A9C5
:102A40001D4800F0C5F801A91B4800F021F901A9B3
:102A5000194800F077F90121174800F04AF80821D9
:102A6000154800F0ABF80821134800F003F90821DD
:102A7000114800F05DF908210F4800F0A1F901218B
:102A80000D4800F01BF864210B4800F0A6F9642102
:102A9000094800F0A4F96421074800F0A2F9642174
:102AA000054800F0A0F90121034800F016F809B02C
:102AB00030BD0000000C01400008004021B1028838
:102AC00042F08002028004E002884FF67F731A40D1
:102AD00002807047CA430282704721B1028842F0E7
:102AE0000102028004E002884FF6FE731A40028061
:102AF000704731B1B0F8442042F40042A0F84420BD
:102B000005E0B0F84420C2F30E02A0F8442070475C
:102B10001AB183890B43838102E083898B438381CC
:102B20007047000070B5002400220023058C4FF68A
:102B3000FE7635400584028C8388048B4FF68F75B2
:102B40002C40B51E2C400D882C43751E2A400D8943
:102B50002A434D882A43144DA8420BD0134DA84256
:102B600008D0134DA84205D0124DA84202D0124DF4
:102B7000A84213D14FF6F7752A404D892A434FF6E4
:102B8000FB752A408D882A434FF6FF652B404FF690
:102B9000FF552B408D892B43CD892B4383800483A4
:102BA000CD888586028470BD002C01400034014030
:102BB0000040014000440140004801400A46002115
:102BC000018B4FF6F77319401143018370470000E2
:102BD00070B5002400220023058C4FF6EF763540B7
:102BE0000584028C8388048B48F6FF752C404FF6D1
:102BF000FF452C400D884FF6FF7606EA05252C434D
:102C00004FF6DF752A400D8906EA05152A434D88DF
:102C100006EA05152A43154DA84202D0144DA842D4
:102C20001DD14FF67F752A404D894FF6FF7606EA93
:102C300005152A434FF6BF752A408D8806EA05150B
:102C40002A434FF6FF352B404FF2FF752B408D89FD
:102C500006EA85052B43CD8906EA85052B4383804B
:102C60000483CD880587028470BD0000002C0140DC
:102C7000003401400A460021018B4FF2FF731940D6
:102C80004FF6FF7303EA02231943018370470000E4
:102C900070B5002400220023058C4FF6FF663540F6
:102CA0000584028C8388848B4FF68F752C404FF6F9
:102CB000FC752C400D882C434FF6FF552A400D899A
:102CC0004FF6FF7606EA05252A434D8806EA0525D4
:102CD0002A43154DA84202D0144DA8421DD14FF2EF
:102CE000FF752A404D894FF6FF7606EA05252A43EF
:102CF0004FF6FF352A408D8806EA05252A434EF611
:102D0000FF752B404DF6FF752B408D8906EA0515A2
:102D10002B43CD8906EA05152B4383808483CD8818
:102D20008587028470BD0000002C01400034014002
:102D30000A460021818B4FF6F773194011438183B6
:102D40007047000070B5002200230024058C4EF669
:102D5000FF7635400584038C8488828B48F6FF75A6
:102D60002A404FF6FF452A400D884FF6FF7606EAC7
:102D700005252A434DF6FF752B400D8906EA0535DA
:102D80002B434D8806EA05352B430B4DA84202D054
:102D90000A4DA84208D14BF6FF752C408D894FF69D
:102DA000FF7606EA85152C4384808283CD88A0F8BF
:102DB0004050038470BD0000002C014000340140ED
:102DC0000A460021818B4FF2FF7319404FF6FF73C3
:102DD00003EA022319438183704781867047018784
:102DE000704781877047A0F8401070470022028822
:102DF0001D4B98420ED01D4B98420BD0B0F1804F26
:102E000008D01B4B984205D01A4B984202D01A4B5F
:102E1000984204D14FF68F731A404B881A43174BD0
:102E2000984207D0164B984204D04FF6FF431A4001
:102E3000CB881A4302808B8883850B8803850A4BD5
:102E400098420BD0094B984208D00E4B984205D0BF
:102E50000D4B984202D00D4B984201D10B7A03865C
:102E60000123838270470000002C014000340140A0
:102E70000004004000080040000C0040001000402A
:102E8000001400400040014000440140004801405F
:102E900010B586B00446012144F20400FEF7F0FCB0
:102EA000234800F089F94FF40070ADF814000320B6
:102EB0008DF8160018208DF8170005A91D48FEF79B
:102EC00030F94FF48060ADF8140004208DF817003D
:102ED00005A91848FEF725F925208DF800000320E4
:102EE0008DF801008DF8020001208DF8030068467E
:102EF000FEF7AEFA01940020ADF80800ADF80A0024
:102F0000ADF80C00ADF810000C20ADF80E0001A9D2
:102F1000074800F0EFF9012240F22551044800F083
:102F2000C3F90121024800F031F906B010BD0000DC
:102F3000003801400008014000B58BB0012108466F
:102F4000FEF76EFC16480090164801900020029093
:102F50004FF4007003900020049080200590002022
:102F60000690079020200890C001099000200A9048
:102F700069460D48FEF769F8FEF7C4F901220621FB
:102F80000948FEF759F801210748FDF78DFF012296
:102F900040210348001F00F005F90BB000BD000000
:102FA00004480040CA0200203000024010B586B03C
:102FB000044601210820FEF763FC01218804FEF786
:102FC0003FFC4FF48060ADF8140018208DF8170016
:102FD00003208DF8160005A91248FEF7A2F84FF459
:102FE0000060ADF8140004208DF8170005A90D4805
:102FF000FEF797F801940020ADF80800ADF80A003C
:10300000ADF80C00ADF810000C20ADF80E0001A9D1
:10301000054800F06FF90121034800F0B7F806B049
:1030200010BD0000000C01400048004010B540F207
:1030300025514C4800F00EF9002870D0494800F0A6
:10304000C5F94949494A12788854484800783128D6
:1030500002DD00204549087044480078401C43497F
:1030600008704348007830B1012815D0022826D0D6
:10307000032874D146E000203E4908703A480078A1
:10308000FF2805D13A480078401C3949087002E011
:1030900000203649087063E0002036490870324845
:1030A0004078012805D132480078401C304908702A
:1030B00004E000202D4908702D49087050E00020E0
:1030C0002C4908702948007804281AD126488078AD
:1030D000294908702448C078097841EA0020C01DB9
:1030E0002649087008460078312805DD00201F4970
:1030F00008701F49087004E01D480078401C1C49F6
:1031000008702DE000201B490870184800781B4902
:103110000978884221D10020194908700DE020E08B
:10312000114817490978405C1649154A12788854A5
:1031300013480078401C12490870114800780F4964
:1031400009788842ECDB0020084908700B490870B8
:103150000749087001200C49087001E0FFE700BF33
:1031600000BF10BD00380140660200205200002060
:103170005500002057000020580000205400002077
:1031800059000020980200205000002021B18289BF
:1031900042F40052828104E082894DF6FF731A40A6
:1031A000828170471AB1838A0B43838202E0838A4B
:1031B0008B4383827047000010B504462048844248
:1031C00009D101218803FEF76BFB00214FF48040F9
:1031D000FEF766FB32E01B48844209D10121480416
:1031E000FEF73EFB00214FF40030FEF739FB25E0EF
:1031F0001548844209D101218804FEF731FB0021E2
:103200004FF48020FEF72CFB18E01048844209D1CF
:103210000121C804FEF724FB00214FF40020FEF733
:103220001FFB0BE00A48844208D101210805FEF784
:1032300017FB00214FF48010FEF712FB10BD0000B9
:10324000003801400044004000480040004C00406D
:103250000050004070B502460024002300250020E5
:1032600040F66A16B14200D100BFC1F3421501F029
:103270001F03012606FA03F3012D02D1968933407C
:1032800006E0022D02D1168A334001E0968A3340CF
:103290000C12012606FA04F41688344013B10CB15E
:1032A000012000E0002070BDF0B503460024002698
:1032B0000025002040F66A17B94200D100BF184629
:1032C000C1F3421401F01F06012707FA06F5012C8D
:1032D00001D10C3004E0022C01D1103000E0143098
:1032E0001AB107682F43076002E00768AF43076021
:1032F000F0BD00002DE9F04786B005460E460024DB
:10330000A24600BFA1460027B08900B100BF2F46EA
:103310002C8A4CF6FF700440F08804432C82AC8960
:103320004EF6F3100440B088318908437189084390
:103330000443AC81AC8A4FF6FF400440B08904439B
:10334000AC8201A8FEF7BCFA1F48874202D1DDF823
:1033500010A001E0DDF80CA0A88900F4004040B105
:103360000AEBCA0000EB0A1031684900B0FBF1F823
:1033700007E00AEBCA0000EB0A1031688900B0FBD5
:10338000F1F86420B8FBF0F004012009642101FB8E
:103390001089A88900F4004040B1322000EBC90038
:1033A000B0FBF1F000F00700044308E0322000EB2E
:1033B00009106421B0FBF1F000F00F0004432C81F0
:1033C00006B0BDE8F087000000380140014688885B
:1033D000C0F30800704710B54FF40050FDF716FE1B
:1033E00028B1FDF747FD4FF40050FDF74FFD10BD2C
:1033F00000BFFEE70FB4054B10B503A9044A0298BD
:1034000000F04AF910BC5DF814FB0000A93E00086A
:10341000800000207CB5491E1C461546CDE9000100
:10342000044B6A462146284600F036F9009A0021EE
:1034300011707CBDC73D0008004870478C0000201B
:1034400002E008C8121F08C1002AFAD1704770476D
:10345000002001E001C1121F002AFBD170470000CB
:103460002DE9FF5FDDE90220010DDDF838B00243F0
:1034700018D044F61050A1F2FF3141430D140F98BB
:10348000012820D0A5EB0B00401C5FEA000A4FF09A
:103490000004474EDFF81C91A046504616D5CAF1ED
:1034A000000728E00F98012443A2012808D000213A
:1034B00000980F9BC0E90021C0E90243BDE8FF9FCF
:1034C0006FEA0B01F4E7CBF10000DEE7074612E0FC
:1034D000F80707D02246334640464946FCF772FFBC
:1034E000804689462246334610461946FCF76AFF55
:1034F00004460E467F10002FEAD1DDE90201BAF141
:10350000000F42464B4602DAFCF75CFF01E0FCF795
:10351000CBFF04460E460022284BFDF76BF803D87C
:103520004FF0FF30014607E00022254B2046314690
:10353000FCF7A1FEFDF720FA102409E0002C0ADBBD
:103540000A220023FDF784F8019B30321A55641ECD
:1035500050EA0102F2D1641C019AC4F1110314442F
:103560000F9A012A03D0012208430DD10AE0084333
:1035700004D000204FF0110B0F9080E7A3EB0B0558
:103580006D1E0DE05B4504DD4FF0000205F1010505
:1035900004E003DA4FF00002A5F10105002AECD0A7
:1035A00000980F99C0E90231C0E9004586E70000A4
:1035B000000024400000F03F300000000000F04315
:1035C0000000E03F30380A2801D201207047002077
:1035D00070470000FEB506460D4614460027062D2E
:1035E00006D0082D16D0092D15D00A2D28D113E0AC
:1035F00004F11400011F0B1F17A2CDE9001029468A
:10360000304601F0C9FA032801D1012000E0002072
:1036100007461AE000BF00BF04F11800011F0A1F8F
:10362000131FCDE9002102900EA22946304601F079
:10363000B3FA042801D1012000E00020074604E08D
:103640000CA000F020FE002700BF00BF0FB100203B
:10365000FEBD4FF0FF30FBE7253264253264253292
:10366000640000002532642532642532642E25640E
:10367000000000005061727365206F662074696DF0
:1036800065206572726F722028666F726D6174209A
:103690006572726F722921002DE9FF4F95B09B462C
:1036A0008946064600250FE2252877D100242746C3
:1036B000F84A0121059400E0044316F8013F203B3D
:1036C00001FA03F01042F7D130782A2811D06FF0B8
:1036D0002F033078A0F13002092A16D8059A44F059
:1036E000020402EB820203EB42021044761C0590B6
:1036F000EFE759F8042B0592002A03DA504244F40C
:103700000054059044F00204761C30782E2816D11F
:1037100016F8010F44F004042A280DD06FF02F0290
:103720003078A0F13003092B09D807EB870302EBAF
:103730004303C718761CF3E759F8047B761C3078EE
:103740006C280FD006DC4C2817D068280DD06A28CA
:1037500014D104E0742810D07A280FD10DE044F47D
:1037600000140AE044F4801401E044F44014727838
:10377000824202D104F58014761C761C30786628CB
:103780000BD013DC582877D009DC002875D04528E9
:10379000F6D04628F4D047281AD19DE118E06328D6
:1037A00035D0642879D0652812D195E1702873D07E
:1037B00008DC6728F1D069286FD06E280DD06F28FB
:1037C00006D1B5E073282CD0752875D0782874D030
:1037D0005A46179990476D1C75E1C4F302500228B0
:1037E00009D003280DD0D9F8001004280DD00D60A1
:1037F00009F1040967E1D9F80010EA17C1E900529C
:10380000F6E7D9F800100D80F2E70D70F0E719F82F
:10381000041B8DF8001000208DF80100EA460120FD
:1038200003E059F804AB4FF0FF3061074FF000019F
:1038300002D40DE008F101018846B9420FDA804553
:10384000F8DB1AF808100029F4D108E008F10101AA
:1038500088468142FADB1AF808100029F6D105984B
:103860005B46A0EB080721463846179A00F094FA09
:10387000284400EB080507E04DE029E10DE01AF8C7
:10388000010B5A4617999047B8F10108F7D25B46E9
:1038900021463846179A13E142E00A220092C4F307
:1038A00002524FF0000A022A08D059F804CB032A2A
:1038B0004FEAEC710AD00DE029E02AE009F1070196
:1038C00021F00702F2E802C1914609E00FFA8CFCF0
:1038D0004FEAEC71042A03D14FFA8CFC4FEAEC71E9
:1038E000002907DA0A460021DCF1000C61EB020135
:1038F0002D2202E0220504D52B228DF8042001227E
:1039000003E0E20701D02022F7E7904659E00A21C0
:1039100002E010220DE010214FF0000A00910BE0B0
:1039200010224FF0000A44F004040827009203E03C
:1039300008224FF0000A0092C4F30252022A05D076
:1039400059F804CB0021032A08D009E009F1070146
:1039500021F00702F2E802C1914605E01FFA8CFC53
:10396000042A01D10CF0FF0C4FF00008220728D5E3
:10397000702806D0009B83F0100353EA0A0305D099
:103980000EE040228DF80420012208E05CEA0102EA
:1039900006D030228DF804208DF8050002229046D2
:1039A000009B83F0080353EA0A030AD15CEA010290
:1039B00001D1620705D530228DF804204FF00108AF
:1039C0007F1E582804D034A003900EA802900DE06A
:1039D00036A0F9E753466046009AFCF739FE844664
:1039E0000398825C0298401E029002705CEA01001B
:1039F000F0D1029806A9081A00F1200A600702D542
:103A000024F4803400E00127574502DDA7EB0A00CB
:103A100000E0002000EB0A01009005984144401AA4
:103A20000590E00306D45B462146179A059800F0FE
:103A3000B3F90544002706E001A85A46C05D17996E
:103A400090476D1C7F1C4745F6DBE0030CD55B46B9
:103A50002146179A059800F09FF9054404E03020AC
:103A60005A46179990476D1C0099481E00900029EE
:103A7000F5DC08E0029802995A460078491C029148
:103A8000179990476D1CBAF10001AAF1010AF1DC07
:103A900065E1000009280100303132333435363712
:103AA000383961626364656600000000303132338A
:103AB000343536373839414243444546000000002A
:103AC00000F058F90544761C307800287FF4ECADFE
:103AD00019B02846BDE8F08F620700D4062709F127
:103AE000070222F0070CFCE80223E14603F000483D
:103AF0005FEA080C02D00FF2702C0DE05FEA045C64
:103B000002D50FF2682C07E05FEAC47C02D00FF206
:103B1000602C01E0AFF2700C4FF0FF3823F000434F
:103B2000CDF850C065280CD006DC452809D04628C1
:103B30001DD047283DD13DE0662818D067287ED1AA
:103B400038E00021112F01DB112000E0781CCDE9C5
:103B5000000106A90EA8FFF783FCDDE90F010E9A0C
:103B600003910021009207F1010A04914DE04FF00A
:103B700000400097CDE9011006A90EA8FFF770FCE0
:103B8000DDE90F0203920E9B11990022DDF80CA0D3
:103B90000093049211B9791C00EB010AB7EB0A00FB
:103BA00004D4C0F1FF3007F1010A0490AAEB07002A
:103BB000019044E0012F00DA01270021112F01DDDF
:103BC000112000E03846CDE9000106A90EA8FFF754
:103BD00047FCDDE90F010E9A039100210491009248
:103BE000BA4621070CD40399514500DA8A46BAF146
:103BF000010F05DD009AAAF10101515C302908D0BE
:103C0000B84202DA10F1040F06DA0121CDE9011001
:103C100015E0AAF10101E9E7002805DC0499014457
:103C20000491AAEB000102E0411C514500DD8A46E7
:103C30000499401A401C01904FF000400290200768
:103C400004D40198504501DBCDF8048000208DF8A4
:103C50004F0002980DF14F07B0F1004F25D02B20F7
:103C60000E9002984FF0020800280CDA40420290B1
:103C70002D200E9007E00A210298FCF7D3FC30318A
:103C8000029007F8011DB8F10001A8F10108F2DC6B
:103C900002980028EFD1791E0E980870307800F055
:103CA000200040F0450007F8020D12A8C01B00F1EB
:103CB00007081498007800B1012000EB0A01019870
:103CC00001EBE07105984144401A401E0590E00365
:103CD00006D45B462146179A059800F05DF8054426
:103CE0001498007818B15A46179990476D1CE00354
:103CF00024D55B462146179A059800F04DF80544F7
:103D00001CE00498002807DBDDE90301884203DD9D
:103D10000098405C179901E0179930205A46904767
:103D2000049805F10105401C04900198401E019083
:103D300004D12E205A46179990476D1CBAF1000104
:103D4000AAF1010ADDDC05E017F8010B5A461799C4
:103D500090476D1CB8F10001A8F10108F4DC5B4646
:103D60002146179A0598ABE62D0000002B000000B5
:103D7000200000002DE9F041044600251E461746AC
:103D8000880404D405E039462020B0476D1C641E29
:103D9000F9D52846BDE8F0812DE9F041044600251B
:103DA0001E469046C80301D5302700E0202788042E
:103DB00004D505E041463846B0476D1C641EF9D570
:103DC0002846BDE8F0814A68002A06D00A68531CDC
:103DD0000B6010704868401E486070472DE9F05F26
:103DE00082464FF0000B5046FCF7CDFB8046002288
:103DF000074BFCF7E7FA06460022064BFCF73BFAB6
:103E00000446FCF7DEFB00F0FF0B5846BDE8F09FD0
:103E10000000E03F0080414010B56FF00400FEF765
:103E20000EFC094800680949B0FBF1F00849087028
:103E3000084600784FF47A7148430649086001202B
:103E40000549086010BD00000000002000127A0043
:103E500044000020480000204C0000200146114A88
:103E600012684A434FF0E0235A6100229A611A46D1
:103E7000126942F001021A6100BF4FF0E02210699E
:103E800000F001021AB100F48032002AF5D04FF0A0
:103E9000E022126922F001024FF0E0231A610022B1
:103EA0009A6170474800002038B504468DF800003C
:103EB00069460320ABBE204638BD000010B500287F
:103EC00021D0114B0022001F196803E0814203D862
:103ED0000A4649680029F9D152B11368841A9C42F4
:103EE00004D1006818441060104602E0506000E001
:103EF000186039B102680B1A934203D10B681A4457
:103F000002604968416010BD84000020FDF77FFD1C
:103F1000FDF770FDFDF78AFEFDF795FEFDF753FFF7
:103F2000FDF77BFFFDF766FEFDF7EEFE0DE00748AF
:103F3000FDF7D4FE20B90548FDF7DBFBFDF73CFD9E
:103F40000348006808B1FDF719FCF0E79000002075
:103F500034000020F0B50B30154D20F0070100248F
:103F6000144A0FE003688B420BD38B4205D95E1ACB
:103F700043184768C3E9006700E04368136002C064
:103F800004E0021D10680028ECD12046002802D170
:103F9000286808B10020F0BD064A07481060074AAB
:103FA000121A22F00702C0E9002401202860D7E796
:103FB0008800002084000020D4040020D0140020B9
:103FC000C3680B6103694B6143698B618369CB6192
:103FD000C26B0A62D0E91223C1E90C23D0E9142391
:103FE000C1E9142390F828204E2A02D1D0E90823F1
:103FF00003E0D0E9082383F00043C1E9102390F8DF
:104000003820452A02D1D0E90C2303E0D0E90C2363
:1040100083F00043C1E912230A6842F001020A60FA
:104020007047F0B5002445684D62D0E90E56C1E9ED
:104030000A56D0E91056C1E90C56D0E91256C1E92A
:104040000E56002220E000231AE000F1080555F882
:104050002250A5B100F1080555F8226003EB830753
:1040600001F1780555F82750AE4208D1012603EB3F
:10407000830701F1780505EB87056E60641C5B1C06
:104080004D6F9D42E1DC521C0C2ADCDB0C670D6895
:1040900045F002050D60F0BDF0B5D0E90065B54210
:1040A00004DC0C264568B6EB850F00DAF0BD4568E8
:1040B000012D01DA0125456086684E6745686D1E51
:1040C000AC00251D8668AE4202DA85682D1B00E033
:1040D00004252C4600223AE045686D1E02EB85035C
:1040E00002EB820600F10C0555F8266003EB83070E
:1040F00001F1780545F8276002EB820600F10C0516
:1041000005EB860503EB8307AE6801F1780505EB47
:104110008705AE6002EB820600F10C0505EB860513
:1041200003EB8307EE6801F1780505EB8705EE6088
:1041300002EB820600F10C0505EB860503EB830715
:104140002E6901F1780505EB87052E61521CA2420C
:10415000C2DB0D6845F004050D6000BFA6E7000056
:104160002DE9F04105460C46287F412809D1206AF7
:1041700008B902202062606A012809D10220606229
:1041800006E0287F562803D10020206201206062CB
:104190001C222946201DFBF7F4FF95F828004E2825
:1041A00002D1D5E9080103E0D5E9080181F0004119
:1041B000C4E9100195F83800452802D1D5E90C0171
:1041C00003E0D5E90C0181F00041C4E91201094A7C
:1041D000094BD5E910613046FCF7F4F8C4E9160143
:1041E000D5E91201C4E91801206840F008002060F8
:1041F000BDE8F0816F1283C0CAA1FD3FD0E9002362
:10420000C1E91823D0E90423C1E91A23D0E90C231A
:10421000C1E916230A6842F010020A607047F0B53F
:10422000C1B007460C4600210D460E46FF2C0DDCA2
:10423000224639466846FBF7A4FF00200DF804002B
:1042400040A9684600F0DCFD05460E46284631468A
:1042500041B0F0BDF0B5C1B005460C46164600278A
:10426000FF2C0DDC224629466846FBF78AFF00201A
:104270000DF80400324640A96846FBF7C4FF074624
:10428000384641B0F0BD0FB430B5ADF2044D00F08A
:104290007FFC4568ADB10DF21440CDF8000440F24A
:1042A000FF316846DDF80034DDF81024FFF7B2F87E
:1042B00004460020CDF80004002C02DD21466846AB
:1042C000A8470DF2044D30BC5DF814FB2DE9F04712
:1042D00004460F46154604EB07080026B146701E3B
:1042E000286029E02078242802D10EB1002425E09E
:1042F00020782A281AD1601D404516D8E0780D286C
:1043000013D120790A2810D110220221601CFFF756
:10431000A1FF2860601DA8EB00003E1A28684845F0
:1043200003D04FF0FF302860002407E016B120785A
:1043300080EA0909641C761C4445D3D300BF286871
:10434000002801DA04B100263046BDE8F0870000FD
:1043500070B505460C46052C01DA002070BD1748E3
:10436000052201682846FBF741FF08B90120F5E75F
:104370001248052241682846FBF738FF08B9022099
:10438000ECE70E48052281682846FBF72FFF08B9A5
:104390000420E3E709480522C1682846FBF726FF09
:1043A00008B90820DAE70548052201692846FBF725
:1043B0001DFF08B91020D1E70020CFE76C000020D6
:1043C0002DE9F8430746884691461D460026002001
:1043D00000904A464146384600F0B4FA2AE0761C7E
:1043E000042C14D004DC012C07D0022C1ED109E0CF
:1043F000082C11D0102C19D113E029460098FFF792
:10440000DFFD13E029460098FFF70BFE0EE029467A
:104410000098FFF741FE09E029460098FFF7A0FE4B
:1044200004E029460098FFF7E9FE00BF00BF0098AE
:10443000FFF744FD6946384600F06EFA0400CED11D
:104440003046BDE8F8830000F0B5CDB005460E4615
:10445000144680212046FBF7ADFE3146284600F089
:10446000B4FC04F1780004F1700104F1680204F175
:104470006003CDE90932CDE90B1020382039203A0C
:10448000203BCDE90532CDE907101C38011F183A51
:10449000183BCDE90132CDE903101C380DAB0FA25A
:1044A00031460090284600F077FB0E2805D018A072
:1044B000FFF7E9FE00204DB0F0BD0DA8FBF785FE2B
:1044C0000746224639460DA8FFF784F820B115A00B
:1044D000FFF7D9FE0020EEE70120ECE72447504724
:1044E00047412C25732C25662C25432C25662C252D
:1044F000432C25642C25642C25662C25662C25430D
:104500002C25662C25432C25662C25642A000000CA
:104510004750474741207061727365206572726F22
:104520007221000047504747412074696D65207033
:1045300061727365206572726F72210070B590B000
:1045400005460E46144650212046FBF733FE314601
:10455000284600F03AFC04F1480104F1400204F15D
:104560003803181FCDE90D320F910C90011F0A1F5F
:10457000131F1038CDE909320B910890011F0A1F53
:10458000131F1038CDE9053207910490011F083838
:10459000021F231DCDE90032CDE90201234607A207
:1045A0003146284600F0F8FA112805D012A0FFF78E
:1045B0006AFE002010B070BD0120FBE72447504781
:1045C00053412C25432C25642C25642C25642C2553
:1045D000642C25642C25642C25642C25642C2564EE
:1045E0002C25642C25642C25642C25642C25662C14
:1045F00025662C25662A00004750475341207061EC
:10460000727365206572726F722100002DE9F041AE
:1046100092B00746884614465C212046FBF7CAFD47
:104620004146384600F0D1FB04F158010A1F131F20
:1046300004F14800CDE90F3211910E90011F0A1FBD
:10464000131F1438CDE90B320D910A90011F0A1F78
:10465000131F1438CDE9073209910690011F0A1F74
:104660000C381C3BCDE90230CDE904210C38211D6A
:104670002346124ACDE900104146384600F08CFA34
:1046800006466068401E8500281DA168814202DA46
:10469000A068401B00E004200546032000EB8505D0
:1046A000AE4201DB132E06DD05A0FFF7ECFD002076
:1046B00012B0BDE8F0810120FAE70000A44E000826
:1046C0004750475356207061727365206572726F50
:1046D000722100002DE9F041CEB006460F46144687
:1046E00060212046FBF766FD3946304600F06DFB41
:1046F00004F15900411E04F15002CDE90942CDE90F
:104700000B10201D011D083A04F14003CDE90532CC
:10471000CDE9071034302831203A203BCDE9013271
:10472000CDE903101C380EAB15A239460090304677
:1047300000F032FA05460D2D08D00E2D06D01DA032
:10474000FFF7A1FD00204EB0BDE8F0810EA8FBF7F9
:104750003CFD8046224641460EA8FEF73BFF20B1B5
:1047600019A0FFF790FD0020EDE720685A2802DA33
:104770002068643020606068401E60600120E2E7CD
:10478000244750524D432C25732C25432C25662C51
:1047900025432C25662C25432C25662C25662C25A7
:1047A00032642532642532642C25662C25432C2561
:1047B000432A00004750524D4320706172736520B8
:1047C0006572726F722100004750524D4320746928
:1047D0006D65207061727365206572726F72210061
:1047E00070B588B005460E46144640212046FBF7BA
:1047F000E1FC3146284600F0E8FA04F1380004F103
:10480000300104F1280204F12003CDE90332CDE99F
:10481000051020382039203A2346CDE900210290A6
:1048200010A23146284600F0B7F9082805D015A097
:10483000FFF729FD002008B070BD207A54280AD166
:10484000207E4D2807D194F828004E2803D194F8F3
:1048500038004B2804D010A0FFF715FD0020EAE730
:104860000120E8E72447505654472C25662C254361
:104870002C25662C25432C25662C25432C25662CBF
:1048800025432A00475056544720706172736520B3
:104890006572726F72210000475056544720706154
:1048A000727365206572726F722028666F726D6117
:1048B00074206572726F7229210000000146002089
:1048C000086101207047000070B50446002600F022
:1048D0005FF98568FF2D01DC4FF4807514212046B7
:1048E000FBF768FC2846FFF735FBA06018B904A069
:1048F000FFF7C9FC01E0E5600126304670BD00000D
:10490000496E73756666696369656E74206D656D61
:104910006F727921000000002DE9F04104460E4637
:10492000002725685DB1686830602F68A86820603E
:10493000206808B9002060602846FFF7BFFA3846B3
:10494000BDE8F0812DE9F041054688461446002770
:1049500000BFE868A04201DAEE6800E02646324671
:104960004146284600F008F80744A41B002CF0D16B
:104970003846BDE8F08100002DE9F84F05468A462B
:1049800090460026002428694044E968884202DBFA
:104990002846FFF793FF2A69A968881842465146BE
:1049A000FBF7EFFB28694044286100BF2A69911B8F
:1049B000AA6890196A46FFF789FC074657B946B1BD
:1049C0002B699B1B1A462B61AB6899191846FBF79C
:1049D000D8FBC2E00098002873DB2A69921B511EA5
:1049E000AA683244501CFFF7B3FC81460C20FFF745
:1049F000B1FA040000D1B4E000206060B9F1040F06
:104A000044D006DCB9F1010F0AD0B9F1020F74D11C
:104A100021E0B9F1080F55D0B9F1100FF7D16DE0D1
:104A20008020FFF797FA606000B99AE001202060CB
:104A30006268A96888193946FFF706FD50B96068B1
:104A400020B16068FFF73AFA002060602046FFF767
:104A500035FA002472E05020FFF77CFA606000B95C
:104A60007FE0022020606268A96888193946FFF754
:104A700065FD50B9606820B16068FFF71FFA00203B
:104A800060602046FFF71AFA002457E05C20FFF729
:104A900061FA606000B964E0042020606268A9687F
:104AA00088193946FFF7B2FD50B9606820B16068D7
:104AB000FFF704FA002060602046FFF7FFF90024AA
:104AC0003CE047E06020FFF745FA606000B948E04D
:104AD000082020606268A96888193946FFF7FAFD46
:104AE00050B9606820B16068FFF7E8F900206060A5
:104AF0002046FFF7E3F9002420E01AE04020FFF70A
:104B000029FA606000B92CE0102020606268A96872
:104B100088193946FFF764FE50B9606820B16068B3
:104B2000FFF7CCF9002060602046FFF7C7F90024AA
:104B300004E02046FFF7C2F9002400BF00BF4CB1DB
:104B4000686808B1686884606C60286800B92C6087
:104B50000020A0603E44002428E700BF3046BDE8A6
:104B6000F88F14B12046FFF7A9F903A0FFF78BFBDC
:104B70004FF0FF30F3E70000496E737566666963B6
:104B800069656E74206D656D6F727921000000009B
:104B900000487047600000200FB42DE9FF5F044615
:104BA0008B4604EB0B080120029000264FF0000911
:104BB000002001908246009011A80390EAE002983C
:104BC000012806D0022813D0032817D004280ED1BC
:104BD0002BE010980078252802D10220029006E0F0
:104BE00014F8011B10980078814200D0D9E0CDE084
:104BF0000026DDF840900320029000BFFBF7B4FAD6
:104C0000006810990978405C202800D1BEE004209B
:104C100002901098484507D91098A0EB09010A2284
:104C20004846FFF717FB064600BF27466EB91098A7
:104C30000078632803D010980078432805D12078A5
:104C400010994978884200D001262EB1A01940451C
:104C500001D834440DE0A4E01098407840B1A8EBAE
:104C60000402109841782046FBF7B6FA040000D100
:104C70004446444500D994E0012002900098401C2D
:104C800000900025E61B10980078632812D008DCFD
:104C9000432810D0452828D0472824D0532830D185
:104CA00012E0652820D066281BD067281AD0732808
:104CB00027D108E000BF039820C8039016B10DB1BA
:104CC000387828701DE000BF039820C803903EB1DB
:104CD00035B1324639462846FBF753FA0020A8552D
:104CE0000FE000BF00BF00BF00BF039820C80390C3
:104CF00036B12DB131463846FFF791FAC5E90001CA
:104D000000BF00BF05B141E0039802C80D00039049
:104D100000D13BE006B939E0109800786F2829D01F
:104D200006DC58281DD0642807D069282BD105E05F
:104D300075280CD0782826D112E000BF0A2231460F
:104D40003846FFF787FA0190019828601CE00A2294
:104D500031463846FFF77EFA8246C5F800A013E0D8
:104D600000BF102231463846FFF774FA8246C5F874
:104D700000A009E0082231463846FFF76BFA824668
:104D8000C5F800A000E00CE000BF00BF00BF109815
:104D9000401C10901098007810B14445FFF40FAFFC
:104DA00000BF00200390009804B0BDE8F01F5DF83C
:104DB00014FB72210160002141600121816000210A
:104DC000C160016141618161704770B506460C4662
:104DD000FFF7DEFE05681DB114B121463046A84735
:104DE00070BD10B504464FF4B4712046FBF7E2F9EC
:104DF000201DFFF7DEFF002020620120606210BD51
:104E000000B583B00A460021CDE90011014668468D
:104E1000FBF7EBFCDDE9000103B000BD00404040C2
:104E2000404040404040414141414140404040407D
:104E30004040404040404040404040404005020229
:104E400002020202020202020202020202202020E8
:104E50002020202020202002020202020202909044
:104E60009090909010101010101010101010101042
:104E70001010101010101010020202020202888896
:104E800088888888080808080808080808080808A2
:104E9000080808080808080802020202400000008A
:104EA0001D4E00082447504753562C25642C25647A
:104EB0002C25642C25642C25642C25642C25642C3D
:104EC00025642C25642C25642C25642C25642C2534
:104ED000642C25642C25642C25642C25642C2564E5
:104EE0002C25642A0000000047504747410000007D
:104EF00047504753410000004750524D43000000C7
:104F00004750565447000000475047535600000092
:104F1000304F0008000000209000000040340008DE
:104F2000C04F0008900000204018000050340008D6
:104F300000A24A0400000000000000000102030477
:104F4000060708090000000001020304010203042F
:104F50000607080902040608000000001E040200FB
:104F60000000000000000000000000000000000041
:104F70000000000000000000000000000000000031
:104F80000000000000000000000000000000000021
:104F9000000000000000000000040000E84E0008CF
:104FA000F04E0008084F0008F84E0008004F0008B7
:104FB00000000000000000000000000000000000F1
:0400000508000131BD
:00000001FF
